:020000041000EA
:1000000000B5324B212058609868022188439860DF
:10001000D860186158612E4B002199600221596106
:100020000121F02299502B49196001219960352056
:1000300000F044F80222904214D00621196600F024
:1000400034F8196E01211966002018661A6600F04E
:100050002CF8196E196E196E052000F02FF8012189
:100060000842F9D1002199601B49196000215960AB
:100070001A491B48016001219960EB211966A021F2
:10008000196600F012F800219960164914480160C1
:100090000121996001BC002800D000471248134993
:1000A000086003C880F30888084703B5996A0420EC
:1000B0000142FBD001200142F8D103BD02B5186610
:1000C0001866FFF7F2FF186E186E02BD00000240BE
:1000D000000000180000070000035F00212200005C
:1000E000F4000018222000A00001001008ED00E03C
:1000F00000000000000000000000000074B24E7A12
:1001000000200420F7010010C3010010C5010010F9
:10011000C1010010C1010010C1010010C101001097
:10012000C1010010C1010010C1010010C701001081
:10013000C1010010C1010010C9010010CB01001065
:10014000CD010010CD010010CD010010CD01001037
:10015000CD010010CD010010CD010010CD01001027
:10016000CD010010CD010010CD010010CD01001017
:10017000CD010010CD010010CD010010CD01001007
:10018000CD010010CD010010CD010010CD010010F7
:10019000CD010010CD010010CD010010CD010010E7
:1001A000CD010010CD010010CD010010CD010010D7
:1001B000CD010010CD010010CD010010CD010010C7
:1001C00000BE00BE00BE00BE00BE00BEEFF3058054
:1001D000103800BEF2EB8871547100107871001075
:1001E0003402001090A31AE700201F49086006C8D7
:1001F00081F3088810471D48006800282FD10DA4FE
:100200000ECC002902D000F012F8F9E71849194A7B
:10021000002000E001C19142FCD1174988471749ED
:1002200088471749884700BEFDE701C901C29A42C5
:10023000FBD3704778710010C000002038140020F4
:10024000F08400100000042000000420F08400105E
:10025000001004200010042000000000704709482E
:1002600003F030F80047000008ED00E0000000D087
:1002700038140020CC27002009310010210E001076
:10028000313200105756000006005250ABB3605395
:10029000706B001006005250861C0302806B001029
:1002A000060052505422A29D8C6B00100500525043
:1002B000DE65F468F0840010F8B5C04606480749CA
:1002C000091A8B10C90FC91810B5491003D0044B77
:1002D000002B00D0984710BD38140020381400209F
:1002E00000000000054B10B5002B03D00449054861
:1002F00000E000BFFFF7E2FF10BDC04600000000B5
:10030000302300202869001010B504001F2101F0DF
:10031000DBFA00222000002101F0EEFA002120008B
:1003200001F0FCFA10BDC046F0B5C646104B070000
:100330000E00984600B500290ED00D4B0024002574
:100340009846A3002AB205214046FB58013401F02B
:1003500079F90835B442F4D3064C200001F0EEF8E8
:100360004046210001F022F980BCB846F0BDC046ED
:1003700074230020EC0D0020F0B54E46454657464C
:10038000DE46E0B589B06C46224B2200190061C9F7
:1003900061C2096804AD11602A00103343CB43C227
:1003A0001B68A94613601C4B1C4F9A461C4B984671
:1003B00023682E689B46002B28D0052002F0E2FD22
:1003C000594602F0B1FF5246013803041B0C9363F7
:1003D000434640081B6800045840000C0004386085
:1003E000300002F0CBF843461B681E201B0C1B0498
:1003F0003B6002F0C3F8043404354C45D8D109B051
:10040000F0BCBB46B246A946A046F0BD300002F0A3
:10041000B5F8F0E7886C0010000005403410054086
:1004200034000540F0B5C64698462E4B0E00C11864
:100430004B1E994100B5050086B0404606311700B5
:1004400001F042FA0123310042462800009305F0F2
:10045000DBFB8023FC1C5B0202932403FB011C4397
:10046000214B80221C40434692059B021343059377
:100470001E4B05200493039402F084FD03F01AF848
:100480001B49041C0C9803F00EF8011C201C02F000
:10049000F6FF804603F036F884B20023002C0ED01D
:1004A000200003F007F8011C404602F0E2FF87211C
:1004B000C90502F0F8FF03F025F8C3B21B022404BB
:1004C0003A001C43310002AB2800029405F0F0FB17
:1004D0000123B3402A6813432B6006B080BCB846A2
:1004E000F0BDC0460000E0AFFFFFFF9F00000E50D0
:1004F0000000204110B50400042101F0E5F92307B4
:100500005B0F9A00D2180F4B9200D11800230B609A
:100510008B60CB600C4B0B6140234B603F3B0B600F
:100520000A4923408C46013BD803094B62449C4650
:10053000C00B13686044184080235B0113431860AC
:1005400010BDC04600000540FFFF00000C00054044
:100550000000FFFFF0B5194E83B0050018493000C8
:1005600005F0DAFA174F0400002130003E6005F074
:10057000B5FA154B01001860144B2200386800933F
:100580002B00FFF74FFF00224821114B5A52002148
:100590001A605A609A60DA601A615A619A61DA6187
:1005A0001A625A629A62DA621A635A639A63DA6367
:1005B0001A645A644A32995403B0F0BD00002050C6
:1005C000786C00102C230020702300200050434939
:1005D000D8220020124B70B51A68124B12481C68C2
:1005E00001232100060010318B40A4004B36141962
:1005F000057851680B42FCD12561457851680B4262
:10060000FCD12561857851680B42FCD1033025610E
:100610008642EDD16420002101F09CFF70BDC046F0
:100620002C23002070230020D8220020F8B5DE46BD
:1006300057464E4645464C4C4C4AE0B5282390461A
:1006400022612122A3540632A3540632A354424607
:10065000A02662633F22B601A3540132444F4549AC
:10066000A6520532A354E3706372E3731E33E6525D
:10067000A1612163A68066816761A6836684268561
:10068000E685A763FFF7A6FFFFF776FEC8204000C8
:1006900001F074FFA0239B05A3602362E3626364FF
:1006A00048239B4600239A46334A00255B46A021F7
:1006B0006261A26352468903E55202339946E254CD
:1006C000A161216325606660E5602661E66165627F
:1006D000A6626663E5632664FFF77CFFFFF74CFEC6
:1006E000C820400001F04AFF244B254AA360236242
:1006F000E36263645B464046E55262604B46E261FA
:10070000A262226452461B49E2546161A1632560E2
:10071000E5602761A061656220636763E563FFF7B9
:1007200059FFFFF729FEC820400001F027FF5B4674
:100730005246E5524B4625606560A560E56025613F
:100740006561A561E56125626562A562E562256373
:100750006563A563E56325646564E254F0BCBB464C
:10076000B246A946A046F8BDD8220020002828009D
:1007700028280028280028282800002800002828E9
:100780002828000070B55A4B5A4A0D005A491A6180
:1007900099605A619A611962D9621A635A639A63BD
:1007A000596448220021554C99525C600022DC615A
:1007B0009C621C644A24A0261A55514AF605116809
:1007C0001E60DE605E62DE63012900D182E00229E4
:1007D00000D17CE0516801295CD002295AD091688F
:1007E00001294DD002294BD0D16801294ED00229D0
:1007F0004CD0116901292BD0022929D05169012936
:100800002CD002295FD0916901292CD0022957D020
:10081000D16901292CD002294FD0116A01292CD08D
:10082000022947D0182184002418641964000C1B85
:100830004100091849198900515800292ED1620038
:1008400012199B18502299701A80FFF7C3FE70BDD1
:10085000502424315C5451690129D2D14F31D977C8
:1008600091690129D2D150215973D1690129D2D17D
:100870005021D971116A0129D2D150215970D1E783
:1008800050243C315C54D1680129B0D150242A3124
:100890005C54AEE7502442315C54A0E701291DD0DE
:1008A0000229D2D1620012199B1800221A80283224
:1008B0009A70CAE74E319970B4E74E311972ACE7BD
:1008C0004E319973A4E750241E315C549BE74E319E
:1008D00019557FE7483106345C547BE762001219F2
:1008E0009B18A02292011A8000229A70ADE7C046A0
:1008F000D82200205050505000505050505000000E
:100900007C270020464B30B51868002805D05A686F
:1009100082423FD0DA68904225D0DA68002A26D198
:100920005A68002A02D019698A4238D09969002988
:1009300002D0DA69914242D09A68002A0CD05C69F0
:10094000A24255D0002802D01C6984424CD01B69B9
:1009500000209A4252D030BD0028FCD01A69824251
:1009600033D00020F7E79A69904256D00200196907
:100970008A42D5D159698A42D2D110000122294B2D
:1009800000211A609A601A61022259600131D9600F
:100990005A61E0E79A689042BCD10022EFE7D9693A
:1009A0008A42C3D11000012200211E4B196001317F
:1009B000996001315A60DA6019615A61CBE71A6AAD
:1009C0009142B9D108000222D9E71B6A9842C8D1E6
:1009D000002202240225134B1A605A6001321C6166
:1009E0005D619A60DA60B6E71C6AA042AFD1EFE7BA
:1009F0001C6A9442A6D120000222D5E79142AAD1D6
:100A0000022202240025074B5A60013A18601C613B
:100A10005D6108009A60DA609DE70022C4E7C04685
:100A20007C27002068150020F8B557464E464546FD
:100A3000DE46404BE0B5984608263F4C3F4F052028
:100A400002F0A0FAE62102F06FFC424601380304EE
:100A50001B0C93633B68400800045840384D000C61
:100A600000042860642001F089FD3B681E201B0CF7
:100A70001B042B6001F082FDA023324A0025DB031A
:100A80002260A26126226360E3612023A5540C3218
:100A9000E554A55430331632A352A3842386063B73
:100AA00092469946E5542572FFF794FDFA2080009E
:100AB00001F064FD00239B4653465A46E5524B46DF
:100AC0002560E2546560A560E56025616561A5610A
:100AD000E56125626562A562E56225636563A563DC
:100AE000E56325646564013EFFF774FD642001F051
:100AF00045FD002EA3D153465A46E6524B4626608A
:100B00006660A660E66026616661A661E6612662AF
:100B10006662A662E66226636663A663E66326648F
:100B20006664E254FFF756FDF0BCBB46B246A946E8
:100B3000A046F8BD00000540D82200203400054042
:100B40003410054050000050F0B546464F46D6469A
:100B5000404BC0B598460A263F4C404F052002F056
:100B600011FAE62102F0E0FB4246013803041B0CB7
:100B700093633B68400800045840394D000C000462
:100B80002860642001F0FAFC3B681E201B0C1B044B
:100B90002B6001F0F3FCA022D201A260314A0025B3
:100BA000E260A022D203226126225023A5540632FD
:100BB000A554E3800C32A3846385E386A387123BAC
:100BC000A554E5542575FFF705FDFA20800001F0D6
:100BD000D5FC48239A46002399465346E5524B4696
:100BE00025606560A560E56025616561A561E561D9
:100BF00025626562A562E56225636563A563E563B9
:100C0000256465644A356355013EFFF7E3FC6420C3
:100C100001F0B4FC002EA1D15346E6524B462660AB
:100C20006660A660E66026616661A661E66126628E
:100C30006662A662E66226636663A663E66326646E
:100C400066646355FFF7C6FCE0BCBA46B146A846E9
:100C5000F0BDC04600000540D82200203400054009
:100C60003410054050000050F0B546464F46D64679
:100C70003D4BC0B598460A263C4C3D4F052002F03E
:100C800081F9E62102F050FB4246013803041B0CB7
:100C900093633B68400800045840364D000C000444
:100CA0002860642001F06AFC3B681E201B0C1B04BA
:100CB0002B6001F063FCA022D20122622E4A502355
:100CC0006262A022D2030025A2622C222383E38346
:100CD000E386183BA554E554A576FFF77BFCFA2084
:100CE000800001F04BFC48239A4600239946534666
:100CF000E5524B4625606560A560E560256165614C
:100D0000A561E56125626562A562E56225636563AB
:100D1000A563E563256465644A356355013EFFF7C5
:100D200059FC642001F02AFC002EA7D15346E6525C
:100D30004B4626606660A660E66026616661A66135
:100D4000E66126626662A662E66226636663A66361
:100D5000E663266466646355FFF73CFCE0BCBA4674
:100D6000B146A846F0BDC04600000540D82200208C
:100D7000340005403410054050000050002270B58A
:100D8000214B84B001AE1A605A609A60DA601A6131
:100D90005A619A61DA611A6232001C4B1C4D13CB06
:100DA00013C2002422B20521280008CE083400F026
:100DB00049FC182CF6D1174C200000F0BFFB210095
:100DC000280000F0F3FB0122134B48211A60002297
:100DD000124B5A5200211A605A609A60DA601A6106
:100DE0005A619A61DA611A625A629A62DA621A6325
:100DF0005A639A63DA631A645A644A329954FFF761
:100E0000E9FB04B070BDC0467C270020D06C001008
:100E100074230020EC0D0020E80D0020D8220020D3
:100E2000F0B5DE4657464E464546E0B5A5B002F061
:100E3000FFFC00F073FC1A20FFF766FA1B20FFF797
:100E400063FA052000F07EFD062000F07BFDD02334
:100E500020221B069A6220329A620121002205207C
:100E600000F04AFD00220121062000F045FD072088
:100E7000FFF770FBDA4B48221900984600238B528B
:100E8000002204260B604B608B60CB600B614B61D2
:100E90008B61CB610B624B628B62CB620B634B63EA
:100EA0008B63CB630B644B644A33CA5402F0C0FCBF
:100EB000CC49CD4804F0AAFF03210E2000F004FD28
:100EC00003210F2000F000FD002201210E2000F080
:100ED00013FD012100220F2000F00EFD00F03AFB6F
:100EE0001520FFF707FBC14B1CAA0493543313CB07
:100EF00013C213CB13C2BE4B37001E00BD4A03936F
:100F0000069200241CAD22B20521300008CD083421
:100F100000F098FB302CF6D1069C013F200000F039
:100F20000DFB2100300000F041FBFFF77FFB80222A
:100F30000021D200300002F051FB2100300000F00F
:100F400035FB322001F01AFB002FDAD1049B0FAAE7
:100F50006C3313CB13C213CB13C206210FA8FFF7B8
:100F6000E3F9FFF761FD8022039ED20000213000EB
:100F700002F034FB069F3000390000F017FB9E4D55
:100F800015AA0B952B1D13CB13C213CB13C21B68D1
:100F90000721136015AB1800FFF7C6F9FFF7D4FD62
:100FA00080220021D200300002F018FB390030000E
:100FB00000F0FCFA2B001CAA203313CB13C213CB76
:100FC00013C203CB03C21CAB18000821FFF7ACF916
:100FD000FFF74AFE80220021D200300002F0FEFA24
:100FE0003900300000F0E2FA40350CA802002B0076
:100FF00032CB32C20321FFF797F901210120FFF71D
:10100000C1FB7E4B012009937D4B01210A937D4B4F
:1010100047469B467C4E5B46E0221B68D20113404C
:101020007A4A136004227A4B1A60FC325B461B68D2
:101030001342FBD05B465C681A6880235B01534017
:10104000E022D2011340714A240413600422704B41
:10105000240C1A60FC325B461B681342FBD05B46D3
:101060005B68620012191B04140B1A0CDB0B9B1833
:101070001B0B01940293A14201D1984203D0029923
:101080000198FFF77FFBD0231B065B685B0600D54A
:101090000CE1019A099994465300029A63449446DC
:1010A00063449B00CD58002D00D0FBE00A9A1268E3
:1010B000CA50012A00D1FFE001230A9A039C136061
:1010C00080222000D200002102F088FA2000069938
:1010D00000F06CFA0B9B1CAA583313CB13C21CAB49
:1010E000A84600241D0022B2052108CD039808342B
:1010F00000F0A8FA182CF6D14546069C200000F016
:101100001DFA2100039800F051FA02990198FFF7A7
:1011100039FBFFF7F7FB8146002800D0E6E0099A8B
:101120001368002B00D1BDE05368002B00D1B9E05B
:101130009368002B00D1B5E0D368002B00D1B1E05B
:101140001369002B00D1ADE05369002B00D1A9E059
:101150009369002B00D1A5E0D369002B00D1A1E059
:10116000136A002B00D19DE080224D46039CD200E3
:101170002000002102F032FA2000069900F016FA51
:101180000B9B0FAA7C3313CB13C20FAC2AB20521E1
:1011900008CC0398083500F055FA182DF6D1069CB6
:1011A000BA46200000F0CAF92100039800F0FEF9C9
:1011B000049D15AA2B00203313CB13C203CB03C20B
:1011C0002B001CAA343313CB13C203CB03C2114B25
:1011D00015AC9846104B1CAD9946059643E0C046A9
:1011E000D8220020801A0600D00E0020886C001043
:1011F00074230020EC0D0020086D00107C270020D7
:10120000E80D002000C004406815002000D0044014
:1012100000E004403400054034100540052001F092
:10122000B1FE310002F080F80138BE4A03041B0C05
:10123000936343461A6843081B0453404A461B0CF9
:101240001B041360380001F099F943464A461B68B5
:101250001E201B0C1B04136001F090F904341AAB20
:1012600004359C420BD026682F68002ED6D138005A
:1012700001F084F904341AAB04359C42F3D1FA200E
:1012800080005746059E01F079F98022039C0021D9
:10129000D200200002F0A2F92000069900F086F9A1
:1012A000FFF76CFD9620400001F068F9642001F022
:1012B00065F902980199AEE602230A9AA8461360DE
:1012C0000B9B1CAA4C3313CB13C21CAB00241D0078
:1012D000B146039E22B20521300008CD083400F04B
:1012E000B1F9182CF6D145464E4606E78022039CFC
:1012F0000021D200200002F071F92000069900F0D0
:1013000055F94B46012B00D1DEE0022B00D1F6E06F
:10131000052305934333984600234D469A46824B56
:10132000824A3B61BA607B61BB613A62FA623B63AD
:101330007B63BB637A6443465246A020FA52002482
:101340004A237B49C0057960F961B9623964FC546C
:101350003860F8607862F863FFF73CF99620400047
:1013600001F00CF93268716893009B1818225B1821
:101370005B00D31A012D7BD0B068F16884468000F1
:10138000604440187169400089463169101A8C46E2
:101390008900614449444900521A022D00D185E078
:1013A0005900CB180021FB1819809C7043001B18B2
:1013B0000020FB1819809C7053009B18FA1850707D
:1013C00000209170F854FFF705F99620400001F0D5
:1013D000D5F8049B15AA203313CB13C203CB03C249
:1013E000049B1CAA343313CB13C203CB03C21CAB24
:1013F0000795B9461D0015AC089623E0052001F0BD
:10140000C1FD310001F090FF0138464A0304494E06
:101410001B0C9363326843081B0453401B0C464A61
:101420001B041360380001F0A9F83368424A1B0C12
:101430001B0413601E2001F0A1F804341AAB04351C
:101440009C420BD026682F68002ED7D1380001F0BF
:1014500095F804341AAB04359C42F3D1059B4F46F2
:10146000013B079D089E0593002B00D057E70CE732
:101470005900CB18A021FB18C90119809C70B368D2
:10148000F0689C469B0063441B185B00D31A58000D
:10149000C318FB1819809C70336950209900C91833
:1014A00073695B185B000021D21A85E7590000249C
:1014B000CB185021FB181C80997043001B18FB1897
:1014C00000201C80997077E70B9B1CAA643313CB18
:1014D00013C2B046039E1CAC2AB20521300008CCD2
:1014E000083500F0AFF8182DF6D1069C46462000CE
:1014F00000F024F82100039800F058F808E70B9B4F
:101500001CAA703313CB13C2B046039E1CAC2AB284
:101510000521300008CC083500F094F8182DF6D1DC
:10152000E3E7C04600000540505050500050505076
:1015300050500000340005403410054003784278D4
:101540008178D21AC37801325B1A01335343436066
:101550007047C046F0B54746CE4680B58BB003AC69
:101560002200104B802723CB23C223CB23C21B880E
:101570000026138026236B4499460B4B02AD9846F8
:1015800023782F706B702A0002233C21404600967E
:10159000013404F063FC4C45F2D10BB0C0BCB94639
:1015A000B046F0BDB86E0010D00E0020F0B5574622
:1015B0004E464546DE462123E0B587B004AC237095
:1015C0000B78834663704B788A46A3702223E370BE
:1015D0004B880027A38016236B44994680239846A6
:1015E000174E03AD424623782A706B702A000223FF
:1015F0003C2130000097013404F030FC4C45F1D11F
:1016000053465B685D1C2800984601F0C9FF4023E3
:101610000400424659460370013001F0E5FF2B00FB
:1016200022003C213000009704F018FC200001F05B
:10163000C9FF07B0F0BCBB46B246A946A046F0BD04
:10164000D00E0020F0B5DE4657464E464546E0B582
:1016500085B078294DDC382A4BDC1C78002C48D02A
:101660000725D6173540AA18D210D2010292294A6E
:101670000392294A93462AE0303C092C40D8FF24A3
:101680002240153A5C46D200A45C5A44A2465478E3
:101690001779A14694785679A046D4789579A446CE
:1016A000D27901925446029A8A1884544C46821880
:1016B0005470444694706446D470019C17715671FE
:1016C0009571D4711C78083109B2002C11D0013306
:1016D0007829F7DC0326039D22002D5D3540022D7D
:1016E00001D1203AD4B22500413D192DC4D8403A49
:1016F000C8E705B0F0BCBB46B246A946A046F0BD5F
:1017000000220025002600279446904691469246E6
:101710000192C7E751700010906D00100123012164
:10172000084A1360084A1360084A080093689843FF
:10173000FBD1074A11608021490013680B42FCD09D
:101740007047C04600E0004000F0004000C000408C
:1017500000C00440024B18688007C00F7047C046A5
:1017600000C00640EFF3108072B6034A1368002BE6
:10177000FCD0BFF35F8F70472C0100D0BFF35F8FA9
:101780000022024B1A6080F3108870472C0100D0B1
:1017900070B5EFF3108C72B60D4D2B68002BFCD09A
:1017A000BFF35F8F0724CB08C618C05C01230C4031
:1017B000A3401C000440034207D118433070BFF31C
:1017C0005F8F2C608CF3108870BD100001F034FD29
:1017D0002C0100D0F8B54746CE46884680B5EFF3D9
:1017E000108C72B6214D2C68002CFCD0BFF35F8F9B
:1017F0009A422CD8D4080727055D06190124174002
:10180000BC402C421FD007210127894609E0D4089B
:10181000055D06194C4639001440A1400C002942D0
:1018200011D001329342F2D201204042BFF35F8FC8
:1018300000220E4B1A608CF3108800280FDBC0BC0E
:10184000B946B046F8BD254310003570EEE7BFF34A
:101850005F8F00232B608CF31088012040424346A9
:10186000002BECD0089801F0E7FCC0462C0100D01A
:101870000021044B044ABFF35F8F02C39342FAD1A5
:101880007047C046000100D0800100D0044A1078A3
:10189000431CDBB2172B00D9102313707047C046CE
:1018A000F40D002010B5064B064C82B001000093E9
:1018B00018221F232000FFF78DFF02B010BDC04685
:1018C000C86A0010541E0020094A10B594464024EE
:1018D000830063441A68C000624080341440802250
:1018E000520113431C60034B9C466044416010BD91
:1018F00004C0014000400140074B80009C4660440A
:101900000368C90092000A435A400C231A408023FE
:101910005B0103431A60704704C00140084B80001C
:101920009C466044002905D0802340229B0103434C
:101930001A607047C02340229B0103431A60F8E7F6
:1019400004C001400123D0228340120693629361B8
:10195000094A40219446830063441A68C0004A4003
:10196000803111408022520113431960034B9C4681
:10197000052360444360704704C0014000400140BB
:1019800001238340002904D0034A1360034A1360F3
:101990007047034A1360FBE780E200E000E100E0EB
:1019A00080E100E001238340014A13607047C04694
:1019B00000E200E0084B10309B688000C358002B09
:1019C00007D0064A00209B1A2F229A424041C0B2FB
:1019D00070470020FCE7C04600ED00E0F80D002055
:1019E000024B10309B688000C058704700ED00E04B
:1019F00070B50D00EFF3108672B60F4A1368002B16
:101A0000FCD0BFF35F8F0D4B10309B6884001B59D7
:101A10000B4A934203D09D4201D001F025FC074BB5
:101A20009B681D51BFF35F8FBFF35F8F0022024B96
:101A30001A6086F3108870BD240100D000ED00E02C
:101A4000CD010010F0B557464E46DE464546E0B59E
:101A500085B0060000911700EFF3108B72B66A4A4A
:101A60001368002BFCD0BFF35F8F0025674B5D57D9
:101A70009A46002D00DAA9E06B00654C01935B19D2
:101A80009B009846A146C1444B4652469B7910366E
:101A90001370604BB6009B6899590B1B2F2B33D9E1
:101AA0005D4B994200D0ACE0019B42469C465B4BAB
:101AB0006544AD0063535A4B0232A218043B9B1A93
:101AC0001B05584A5B0D651913436B80564B01216A
:101AD000AB80FF23AB71009BEF71AB604B460B43B8
:101AE00019004C4B9B689951BFF35F8FBFF35F8F19
:101AF0000022454B1A608BF3108805B0F0BCBB4642
:101B0000B246A946A046F0BD01200A008243D3791F
:101B10008C46BB4231D84546130044491B1B5B41F0
:101B20005943090D3D4B63533D4B02356519043B49
:101B30005B1B1B053B4D5B0D2B43AA464D466B8043
:101B40000425AC465546E044131F44441B1B1B05AB
:101B50005B0D1D434B46997100999D8099604946E4
:101B6000DF71334B01431360BBE75800C01880009E
:101B70002018C179B9422FD902000623D356002B71
:101B8000F3DA02932B4B61460393131D9A46042309
:101B90005B429C46E14450464B461B1A1B055B0DBD
:101BA0009C46204B9571984663464046034393807C
:101BB000019B5A199200039BA418A380029B1C4A04
:101BC000A371009B2260E771A3608AE701F04CFBE0
:101BD000002553465D574FE7908802934005131D3B
:101BE0009A46031561469C464046D44463460430F9
:101BF0002018181AE0230005400D1B02184303901B
:101C0000C5E701F031FB4FE7240100D0C6270020D3
:101C1000F80D002000ED00E0CD01001000A1FFFF55
:101C2000280E002000E0FFFF01BDFFFFAAAA000070
:101C30000148804701BD0000F0B5DE4657464E46DC
:101C40004546E0B50C0083B0EFF3108872B65D4AEC
:101C50001368002BFCD0BFF35F8F5B4B5B499A6826
:101C6000030010339F00D5598D4239D0A5424AD088
:101C7000574EAA1B2F2A33D8012292468240914602
:101C80004846544A1268104001904846524A106033
:101C9000BFF35F8FEFF305829346002A35D093425E
:101CA00001D001F0E1FA2A0053469A439068844239
:101CB00008D175E04B005B189B00F3189868A042B0
:101CC00034D01A00062151560029F3DA844253D049
:101CD000019B002B26D04A46404B1A603D4B1A60B0
:101CE000394B9B68DD51BFF35F8FBFF35F8F0022DD
:101CF000344B1A6088F3108803B0F0BCBB46B24680
:101D0000A946A046F0BD0D00EAE72A0053469A43D3
:101D100090688442D6D1062010561300002809DAB4
:101D20000D0031E04A462C4B1A60D9E706201856C0
:101D3000002822DB42001118890074188A46A16825
:101D40009960E179D971062161569971002925DBE5
:101D5000A488F11A6405241554440919E0240905DE
:101D6000490D24022143998013181D4A9B001178C4
:101D7000F31899711070ABE713005946002914D17C
:101D8000FF3191711749918015490A789A71164A65
:101D90009B1B5B415A43120D0A7099E71349E2E716
:101DA0000620105613000028C4DA114A1149D21A2D
:101DB000083A5002400D014399800F4952080A43E6
:101DC000DA8085E7240100D000ED00E0CD010010AD
:101DD000F80D002000E100E080E100E080E200E09A
:101DE000C627002001BDFFFFAAAA000001BD000018
:101DF000320E002000F0FFFF00F8FFFF70B5EFF398
:101E0000058101240443EFF3108C72B6214A136854
:101E1000002BFCD0BFF35F8F1F4B05001F4AED1A4C
:101E20006D416A43120D1E4D8900AE6852B276585C
:101E3000A6421CD00621595691421CD01221595657
:101E4000914222D01E215956914220D02A21595622
:101E50000324914210D0134B19781A708171BFF38B
:101E60005F8F00220B4B1A608CF3108870BDAB683B
:101E70000D4C5C50EFE700246100091989005B18E4
:101E8000FF21997109499980E5E70124F4E70224CB
:101E9000F2E7C046240100D0F80D0020AAAA0000F5
:101EA00000ED00E0C6270020CD01001001BDFFFFBE
:101EB000054B064A1360064A136053609360D36073
:101EC00013615361936170478080808000E400E07B
:101ED00004E400E010B5084B084C82B00100009308
:101EE000002205232000FFF775FC002801DB1F23DB
:101EF000181A02B010BDC046E46A0010CB270020BB
:101F0000024B9C46614489000160704740000034E8
:101F100010B50400FFF7BAFC01002000FFF7F0FF46
:101F2000FF232371BFF35F8F10BDC04610B50400BF
:101F3000FFF7ACFC01002000FFF7E2FFFF23A380C6
:101F4000BFF35F8F10BDC04610B504000120FFF73E
:101F5000A9FC034BC3189B002360BFF35F8F10BD28
:101F600040000034034B9C46614489000160BFF38C
:101F70005F8F70474000003483680B4810B584467B
:101F8000614462441201090159189B185C684A684F
:101F90000120944201D802D00020C0B210BD1A68BE
:101FA0000B689A42F9D8F7E7FFFFFF0F0A4B196851
:101FB000EFF3108072B60A68002AFCD0BFF35F8F7F
:101FC0001B68BFF35F8F00221A6080F3108840BF48
:101FD000002000217047C0466C230020F8B557460A
:101FE00045464E46DE46E0B598460CAB1C780DAB38
:101FF0001B78070091469A460568002C59D1AC7BA6
:10200000002C3BD0660029683619033E89194B78AD
:10201000AB73002B00D1EB7300238B704B700B70F4
:102020002D4BE218BB6812019B184A461A604246C3
:102030005A600A9A9A600B9ADA6000238B704B7090
:102040000B706B7B9B46002B26D022006B68594699
:10205000A86898475B465B005B442A68033B0028FE
:1020600012D058469619B070D118D35C002B00D00E
:1020700073705B460C706B735C450ED0F0BCBB4656
:10208000B246A946A046F8BDD3189C709119925D3E
:10209000002A1CD15B460B706C734A464346387D60
:1020A00000F0B8FB051E0AD10E9B002BE6D01D7078
:1020B000E4E7660029683619033E8919B0E75346FC
:1020C000002BF1D12100386800F0BCFDECE75A701C
:1020D0005B460B706C73E0E7FFFFFF0FF0B5DE4669
:1020E00057464E4645460023E0B58BB00893684BF3
:1020F0008200D45800239B46099000F02BFB02007D
:102100000B006068EFF3108A72B65646016800292A
:10211000FCD0B246BFF35F8F21684F7B8C46002F07
:102120002ED0A5685B49A94679180901894449461A
:102130000868496805000E00AD1A9E41002E5FDD5B
:1021400002000B00099800F065FB0023002299466D
:10215000002306920793002398466368BFF35F8FBE
:102160005A461A608AF310884346002B12D1002881
:10217000C3D10BB0F0BCBB46B246A946A046F0BDE9
:102180000023002299460023069207930023002093
:102190009846E2E7089B494618023843C047626800
:1021A00005000E00EFF3108A72B61368002BFCD006
:1021B000BFF35F8F002E41DB2B00334302D0236936
:1021C000002B56D12368D97B002905D01A68480016
:1021D00041185218033A57709A7B002A00D19F7316
:1021E000DF73E268013FD35D0133D3555B46236162
:1021F0006368BFF35F8F5A461A608AF310887CE7E2
:10220000002E02D1002D00D09AE70021604600F098
:1022100097FC4B461A685B68069207934B469B688F
:1022200098464B46DB689946E368DB19013B1B780F
:1022300008931B020343236100208EE72369002BD0
:10224000C0D0069A079B8021521BB34109068B42DE
:1022500002D30122104B524200210491013103911B
:10226000494601914146200002970091FFF7B6FED2
:10227000BCE700F06FFA2A00330012184B418021AE
:1022800009068B42E8D30122034B5242E4E7C046E1
:1022900050230020FFFFFF0FFFFFFF7F10B5144CFE
:1022A0006368002B04D00A211248FFF729FE10BDF5
:1022B0002300114A1021206800F05EFB032000F08B
:1022C0003DFA032000F00EFB03200C4900F05CFAFD
:1022D000FFF7DCFA0A4B9C4603232375D0231B0629
:1022E0001B6860446375074B80006060DC60DAE760
:1022F000400E00206C230020791F0010DD2000100C
:10230000400000345023002000487047400E002059
:10231000F0B557464E464546DE46E0B585B00193DA
:1023200010AB1B780600039300239A469846009250
:102330007268EFF3108B72B61368002BFCD0BFF3FA
:102340005F8F3568AC7B002C00D16EE067002B6896
:102350003F19033FDB195A78AA73002A00D1EA73A8
:10236000484AA118B26809015218009801991060F2
:1023700051600E9991600F99D16042469A705A70DF
:102380001A706B7B9946002B00D16BE022006B68C2
:102390004946A86898474B465B004B442A68033B74
:1023A000002856D04846D719B870D118D35C002BF6
:1023B00000D07B704B460C706B734C4553D0F36868
:1023C0001B19013B18787368BFF35F8F42461A6090
:1023D0008BF310885346002B08D10002204305B030
:1023E000F0BCBB46B246A946A046F0BD039B002BFD
:1023F00046D00E9B00200F99984703000B433FD017
:1024000004000D1E1ADA009A019B121BAB410092C8
:10241000019380221206934204D301231A4C5B429B
:1024200000930194039B9A4682E77368BFF35F8F22
:102430001C608BF3108801204042D0E700F08AF93D
:102440008022001969411206009001919142E9D35E
:10245000E3E7D3189C70D119D25D002A00D05A70DE
:102460004B460B706C73307D009A019B00F0D2F9E3
:1024700082460028A3D02100306800F0E3FB9EE7ED
:102480000020ACE7FFFFFF0FFFFFFF7F407D70479D
:10249000F0B504000D0006267642F717C646361939
:1024A0006F4100B584B08F4214D811D000F052F9BA
:1024B00032003B00121A8B41002B15DC002B3ED062
:1024C0002000290000F050F904B080BCB846F0BDEF
:1024D0008642EBD90026002700F03CF932003B0091
:1024E000121A8B41002BE9DD002302930193154B57
:1024F0003200009314483B00FFF70AFF0028DFDB9F
:1025000000239846BC46114A114F7B6A9C4504D86B
:10251000B96A8E42D4D99C45D2D11168EFF31080AC
:1025200072B60B68002BFCD0BFF35F8F1368BFF34C
:102530005F8F4146196080F3108820BFE5E7002ACD
:10254000BED0D1E7AD1F0010400E00206C2300204C
:102550000040054070B504000D0000F0FBF880233A
:10256000001969411B06994202D3012002494042E9
:10257000FFF78EFF70BDC046FFFFFF7F70B50600FE
:1025800000F0E8F8FA2204000D00002330000021DA
:10259000920000F051FF8023001969411B06994207
:1025A00002D3012002494042FFF772FF70BDC046CE
:1025B000FFFFFF7FF0B5EFF30583CE46474680B5BA
:1025C00005000C0085B0002B12D02A4A0020536A67
:1025D000A34203D3926A0130AA4204D305B0C0BC1F
:1025E000B946B046F0BD1B1B5A1E9341D8B2F5E761
:1025F000214E02930193214B0200009330000B0007
:10260000FFF786FE031EE0DD20BF7168EFF3108741
:1026100072B60A68002AFCD0BFF35F8FDAB2944624
:10262000FF2230681A40417B61450FD0016889461E
:10263000510088464946904441440339897800292D
:1026400004D13269934209D1316107E0F1681B0A74
:102650008A18013A1278DBB29A4207D07368BFF346
:102660005F8F00221A6087F31088AEE7614600F0A2
:10267000E9FAF3E700400540400E0020AD1F0010CE
:10268000F0B5EFF30582D6464F4646461000C0B57A
:102690001038EFF3108872B6214C2368002BFCD061
:1026A000BFF35F8F0123190081401E4D1F00696336
:1026B000AA461D4D29601D4D2E78AC463500C540FB
:1026C0002F402B4215D053465F6A194B8500EB58BB
:1026D0009F4218D36246174B8E43EB581670BFF3D8
:1026E0005F8F0022226088F31088002B06D0984765
:1026F00004E0BFF35F8F276088F31088E0BCBA4620
:10270000B146A846F0BD0C4B92009C46624413684B
:102710001360BFF35F8F0023236088F31088EDE719
:10272000280100D0004005403C700540CA27002029
:10273000A02700203C1D0020D03F054010B5034BD2
:1027400001001800024AFFF723F810BDC42700203B
:10275000006B0010034B596A0A00986A596A8A4252
:10276000FAD1704700400540064A536A9942FCD8A6
:1027700007D1044B02E05A6A914202D19A6A82421E
:10278000F9D370470040054070B504000D00EFF329
:10279000108672B61A4A1368002BFCD0BFF35F8F05
:1027A000002D1BD02000FFF71BF9164981420AD0EB
:1027B0002000FFF71DF901212000FFF7E1F80123B8
:1027C000A340114A1360114BA400E550BFF35F8F83
:1027D00000220B4B1A6086F3108870BD0121A140C6
:1027E0000A4BA200D5500A4B20001A788A430549AB
:1027F0001A70FFF721FA00212000FFF7C1F8E5E782
:10280000280100D081260010386005403C1D0020C2
:10281000CA270020F0B54F46D6464646C0B5070049
:102820002B4C616A0D00A66A616AA942FAD18B42FB
:1028300008D805D00120E0BCBA46B146A846F0BD94
:10284000B242F7D9EFF3108A72B622480168002924
:10285000FCD0BFF35F8F0125BD401F491C4C88464B
:10286000097889462943C9B28C46414660460870BA
:10287000391D890065630A511849B8004350216A1F
:102880000020294219D0616A0800A66A616A814263
:10289000FAD18B4219D801D1B24216D8CC450BD00F
:1028A0000B4B1F221D625D6301233A4093400C4A8B
:1028B000136043464A461A700120BFF35F8F00221F
:1028C000044B1A608AF31088B5E70020F5E7C0468C
:1028D00000400540280100D0CA270020A027002082
:1028E00080E200E0EFF3108C72B60A490B68002B0F
:1028F000FCD0BFF35F8F01238340074A0748136270
:1029000002789A430270BFF35F8F00230B608CF351
:1029100010887047280100D000400540CA270020D9
:1029200070B506000D00140000291DD0002A12D039
:1029300073688068984762006B0012195B193168F0
:10294000033A033B002808D08A189570C818CB5C5E
:10295000002B0BD10470280070BDCB189C70881818
:102960008A5C002A05D105702000F5E753700470D9
:10297000F1E75A700570F7E710B583600023CCB219
:1029800043730133426004738373C4730068421C51
:10299000012C05D90133DBB2137003329C42F9D10B
:1029A000FF230B405A00D318C0180023033843708C
:1029B00010BDC04670B505000C1E07D0630001684D
:1029C0001B19033BCB185A78002A01D1200070BD97
:1029D000500080180338091800204E7848702100F4
:1029E00058702800FFF79CFF310004002800FFF713
:1029F000E1FF0600002C20D00028E7D032002100A3
:102A00006B68A86898477200630092191B192968BF
:102A1000033A033B002808D08A189470C818CB5C8E
:102A2000002B00D053700670D0E7CB189E7088182A
:102A30008A5C002A00D05A7004703400C6E7C04691
:102A4000F0B557464546DE464E46E0B50D006F00F0
:102A500001687F19033F0400C85D83B00192CA1961
:102A6000002850D043001B18033BCB185E78B446B7
:102A7000002E1AD1019E002E42D0E67B002E04D0FB
:102A800073009B19CB18033B5D70A37B002B00D117
:102A9000A573E57300282FD10023537003B0F0BC59
:102AA000BB46B246A946A046F0BD72006244033A56
:102AB0008A18517888460021517089465970320031
:102AC00001002000FFF72CFF43468246002B07D071
:102AD0005B0021684344033BCB185A78002A16D187
:102AE000424651462000FFF71BFF2168019BCA198F
:102AF000002BC2D10028CFD043001B18033BCB18BA
:102B000000219970C8E7019B002BB6D1C4E75000A3
:102B1000801803380918487883464846487058702A
:102B200041462000FFF7FCFE594680462000FFF793
:102B300041FF414602002000FFF7F2FE8046CFE74A
:102B4000F0B557464546DE464E46E0B583B00191A6
:102B5000457B04006F0000687F19033FC15DC21907
:102B6000002952D04B005B18033BC3185E78B44673
:102B7000002E1CD1019E002E44D0E67B002E04D0F6
:102B800073009B19C318033B5D70A37B002B00D11E
:102B9000A573E573002931D10023280053706173B8
:102BA00003B0F0BCBB46B246A946A046F0BD7200D9
:102BB0006244033A82185078804600205070814663
:102BC000587032002000FFF7ABFE43468246002BD0
:102BD00007D05B0021684344033BCB185A78002A96
:102BE00017D1424651462000FFF79AFE019B010093
:102BF0002068C219002BC0D10029CDD04B005B1832
:102C0000033BC31800209870C6E7019B002BB4D18A
:102C1000C2E75000801803380918487883464846B0
:102C20004870587041462000FFF77AFE59468046AA
:102C30002000FFF7BFFE414602002000FFF770FEB4
:102C40008046CEE770B5050000292CD0437B8B422F
:102C50002ED04C0000686418033C0419A278002AA6
:102C600021D053009B18033BC25CC6188A4202D194
:102C70001BE0002A08D053009B18033BC3185A7866
:102C80008A42F6D162785A70002301222800A3708C
:102C90006370FFF7D5FE697B02002800FFF740FE56
:102CA0006873012000E0002070BD63783370EBE7AB
:102CB00001221900FFF7C4FEF2E7C04610B50C2050
:102CC00082B000F0B7F9FEF745FD002810D08B4B1D
:102CD0008B488B498B4A186059609860D96018619D
:102CE00059619861D961186259625A6202B010BD87
:102CF000854CA06700F0F4F90122844B1A60636CE4
:102D0000012BFCD10322824B1A607F4A936B012B6B
:102D1000FCD1013301217F4A7F480093043300F046
:102D200037F905237D4A009301217D4800F030F9F1
:102D30007C4B5A68FF2A02D8802252005A608022B7
:102D4000734B6E4C12011A602169002907D060692B
:102D500000F0EAFA013043001B18033BFDD2E022E9
:102D6000704B714819680A4002600222196851408C
:102D700001320A40042102609A681142FCD080218D
:102D80006A4A09011160802252005A60684B23612F
:102D9000684B5968FF2900D85A60032201215B4B18
:102DA0001A60644A93681942FCD0E023106803401B
:102DB00061480360126803234A40022113405D4AC0
:102DC000036093681942FCD080215C4B09011960B3
:102DD00080215B4B4900516063615A4B5A68FF2A5E
:102DE00000D859608022584B12011A60E16900290D
:102DF00007D0606900F098FA013043001B18033BCC
:102E0000FDD2E0234F4A11680B4050490B608021EE
:102E10004F4B090119608021394B49005160E36132
:102E20004C4B5A68FF2A00D8596080224A4B120145
:102E30001A60216A002907D0606900F075FA013034
:102E400043001B18033BFDD2E023424A11680B40AC
:102E500042490B608021424B0901196080235B00CD
:102E600053608022264BD20223623E4B5968914226
:102E700000D25A6080223C4B12011A60616A00291C
:102E800007D0606900F050FA013043001B18033B83
:102E9000FDD2E023334A11680B4034490B60802196
:102EA000334B090119608023DB025360154B6362C9
:102EB000304B5A68FF2A02D8802252005A60802282
:102EC0002D4B12011A60A169002907D0606900F03A
:102ED0002BFA013043001B18033BFDD2E023254AA7
:102EE00011680B4025490B608021254B09011960B1
:102EF00080235B005360124BA361F7E63814002077
:102F0000006CDC021BB70000008000403CB00040B9
:102F100030B00040002F685900800240008C864786
:102F200000C00240308000403090004030A000409F
:102F3000001BB7003C8000403C9000403CA000409B
:102F4000405973075480004054B0004054900040F2
:102F500054A000406080004060B00040609000409D
:102F600060A000406C8000406CB000406C9000405D
:102F70006CA000404880004048B0004048900040AD
:102F800048A00040014B8000C05870473814002012
:102F9000F8B5040022481E0017000D0000F0C4F927
:102FA0000100380000F0C0F9069B36041B031E43E5
:102FB0002368002B22DB1B4B1B49E3185A1E93414D
:102FC0008022920194465B421B0B184A1B03634408
:102FD0001360174A13601F008A689743FBD1C02211
:102FE000231D92011A4321232560A06013602368EA
:102FF000002BFCDA0823E6601360F8BD3F2322684B
:103000001340AB42D7D1A3681B051B0D8342D2D11D
:10301000EE22E368D2021340B342CCD1EDE7C046C2
:10302000001BB7000040FDBF00C0004000E00040B2
:1030300000F000408023024A9B000343D3627047A4
:103040000080054010B580241C4BE4051C6000285E
:103050001AD001231A4C18431A4BDC611A4C444015
:103060001C62596298628021144BC9051960174887
:1030700017490860E021C9041960002A07D180229D
:10308000144B12061A6010BD0E4BD861EBE75301CA
:103090009B1A9B009A18802312015B049A4209D262
:1030A00013000D490B60074B5A608022094BD20573
:1030B0001A60E8E7094B1A00F3E7C04600B0054084
:1030C000D3C007B0008005402D3FF84FFCFF010042
:1030D0000820014000A0054024230020FFFFFF003E
:1030E000AA23064A1B0113602F230549D360054B11
:1030F00019605368002BFCDA7047C046004002405C
:1031000000B0FA00006002402C4B2D4A70B51A60E6
:103110002C4A2D4B2D491A6014008B689C43FBD11F
:103120002B4D2C4EB54208D2013E761BB60808CD79
:10313000984723000134B342F9D1FFF7BFFD264A77
:10314000214B1A60214A9368DB43DB01DD09002B28
:10315000F9D14022214B224C224E9A675A671A67B6
:10316000DA66B44208D223682000002B20D008344D
:10317000FEF7DCFEB442F6D31B4C1C4EC022B168F5
:10318000200000F031FAB460FEF772FBFEF790FE0B
:10319000FFF784F8164C174EB44208D2013E361B96
:1031A000B60808CC98472B0001359E42F9D170BD76
:1031B0000834FEF7ADFEB442D5D3DDE700E00040B1
:1031C000BFCDFBFEFE7F3C0000F0004000C0004091
:1031D0002014002030140020FFFFFF0100F0014008
:1031E00018140020201400200000002000ED00E052
:1031F000301400203814002000BEFDE7094A030007
:103200001068002805D00849C3188B4207D81360FE
:10321000704706480449C31810608B42F7D9012053
:103220004042F5E7D01E002000000420CC270020FB
:1032300010B5FFF7E1FFC0460FB400B5084883B0F2
:1032400000F06EFA049B002B07D005A9180001912D
:1032500000F018F8034800F063FA0120FFF7CCFFF4
:10326000246B0010346B001010B50148FFF7E4FF29
:10327000386B001010B5002800D110BD00F004FA22
:10328000FBE7C04610B5094A0300146884B0002C5F
:1032900008D0012200910648524203A9A04701200C
:1032A00004B010BD00F03CFA0020F9E7D422002061
:1032B0007532001001480421014B1847700E0020A0
:1032C000E5320010142310B50100188804331B8860
:1032D000984710BD162310B50100188802331B88CB
:1032E000984710BDF8B54746CE4680B50F1E19D099
:1032F00014239946043304000025012698464B46C2
:103300001888434621681B88984701C4431E98418A
:10331000013540420640AF42F1D13000C0BCB94651
:10332000B046F8BD0126F8E7114A936F9B0813D207
:1033300010665166002905D0FFE7FFE7FFE7516FF0
:10334000106F704704B5002801D00020C04303F07F
:10335000A3FA002104BDC046F0B5146E556E576F38
:10336000166FFFF7E5FF1466556657671667F0BDE1
:10337000000000D0132370B51D78012D15D010DD8D
:103380001D48FFF7A7FF1D4C01008022200000F020
:103390002BF9022D2DD01A48FFF794FF194B186016
:1033A00070BD194B154CA364F5E7174B134C236004
:1033B0006360A360E36023616361A361E3612362EF
:1033C0006362A362E36223636363A363E3632364CF
:1033D0006364A364E36423656365A365E3652366AF
:1033E0006366A366E36623676367A367E367A36413
:1033F000D1E7054BA364CEE75344000080150020BD
:103400004C330000682300200D34001007B56046DF
:1034100001880A0A0230DF2AFAD1C9B2820804D32D
:10342000028840880004104300E00068014A5050C0
:10343000039007BD8015002051434343C9188C46B3
:10344000110C83B24B4310B4040C614392B280B2AE
:10345000504362431C041B0C001910BC5941130457
:10346000120CC0185141614470470000484041406F
:1034700048400E4B5B6818470C4B1B6818470C4ABA
:10348000936F9B0802D2094BDB681847F0B5146EA6
:10349000556E576F166FFFF7F6FF054A14665566AF
:1034A00057671667F0BD014B9B68184780160020D0
:1034B000000000D0491A002808D1084670470000D3
:1034C000C10FC90700D54042002817D0F44603B405
:1034D0000B4B1B68984706BC81409E3840428031A8
:1034E00007D20B0607D04900490AC005104308431C
:1034F00060470130F8E7490A8902F5E770470000A4
:1035000068230020014B5B6A1847000080160020EA
:10351000132310B512481C78FFF7DCFE0100012CC4
:103520000AD003DD80220F4800F05EF80E48FFF756
:10353000C9FE0E4B186010BD0A4C5422200000F04A
:1035400053F80B4B6365A365E36523666366A36667
:10355000E36623676367A367E3672362E361E5E7E5
:1035600053460000801600204C33000068230020E2
:103570007535001007B5604601880A0A0230DF2A57
:10358000FAD1C9B2820804D30288408800041043EB
:1035900000E00068014A5050039007BD80160020EB
:1035A00010B5040002F0C2FC002804D0034B04193B
:1035B0009C4200D810BD0248FFF73EFE00000420E8
:1035C000446B001010B502F0BBFC10BD0148042193
:1035D000014B1847800E0020E5320010014B1B689C
:1035E00018470000800E0020014B5B681847000060
:1035F000800E0020F0B5C64600B5437D07000D00E3
:103600001600002B38D0002A2EDD00216A1E9046BD
:103610006A5C037D4C1C00200A2A0CD0A64216D0FE
:1036200043461B5D21000D3B5A4253416A5CDBB2AD
:103630004C1C0A2AF2D1002BF0D1884217DB022160
:1036400010483B689847A64207D02000E8E786422A
:1036500003DD311A3B6828189847AD19013D2B78D6
:103660000D3B5A4253413B7580BCB846F0BD091A28
:103670003B6828189847E2E703681100280098473C
:10368000F2E7C046046F0010F0B5CE46474680B55D
:1036900083B06B460600DD1D2870FFF75BF8002342
:1036A0001A4A12184B41802109068B4202D301228B
:1036B000174B524217490800884603F00DF9164B84
:1036C00081461C68002C14D0144F02E02469002CA1
:1036D0000FD02368002BF9D03B68002B01D0A34208
:1036E000F4D1200001222900FFF784FF2469002C77
:1036F000EFD14B46002B05D1300003B0C0BCB9461A
:10370000B046F0BD404603F0BFF8F5E740420F0079
:10371000FFFFFF7F18140020C01E0020CC1E0020D9
:10372000F0B5DE4657464E464546E0B585B0070043
:1037300002F02CFF0600FFF70DF800232B4A1218A9
:103740004B41802109068B4202D30122284B524271
:10375000284908008B4603F0BFF8274B01901C68EE
:103760009A46002C3BD0254B984602ABDD1D0A2320
:10377000994602E02469002C17D02368002BF9D069
:1037800043461B68002B01D09C42F3D1200032003D
:103790003900FFF72FFF4B462000012229002B7034
:1037A000FFF728FF2469002CE7D1019B002B18D1DB
:1037B00053461C68002C06D06368002B0BD098473A
:1037C0002469002CF8D1300005B0F0BCBB46B246ED
:1037D000A946A046F0BD2469002CEDD1F3E70028EE
:1037E000F1D0584603F050F8E2E7C04640420F00DF
:1037F000FFFFFF7F18140020C01E0020CC1E0020F9
:103800000A4A1368002B05D10CE01A001B6910321C
:10381000002B07D09842F8D1002902D10369136028
:10382000016170470029FCD01060FAE7C01E00203B
:1038300010B500F0D9F910BD7047C0460022014B09
:103840001A707047C72700204B790020FF2B0BD13F
:103850008B79002B08D1CB79012B05D1082A03D90C
:10386000024B8A7809301A707047C046C72700207B
:103870000120704770B5012901D0012070BD1349A6
:103880005379107909781B02034300209942F5D13E
:103890005378012B08D0022BF0D1002064220021A4
:1038A000FFF7D0FB0120E9E79478D27805001202F7
:1038B0001443D20502D5620A93401D000448FFF765
:1038C00001FD7F210300214028009847C7270020E1
:1038D000554200000123037000487047086F001034
:1038E0004B780A781B0213438A7810B512041A43E6
:1038F000CB781B0613439622D200934200D010BD12
:103900000348FFF7DFFC0021030008009847C0468A
:1039100055420000024B1860024B19607047C046C8
:103920004C1E0020501E002010B5024B1878FEF7E8
:1039300039F810BDC8270020114B70B51A68002A4D
:103940001AD0EFF3108172B610680028FCD0BFF3D4
:103950005F8F00200B4A596010701B68BFF35F8FA8
:10396000186081F3108800240025074B1878FEF7B3
:1039700019F82900200070BDFA240025A400F4E7FE
:1039800048230020C9270020C827002070B5040064
:1039900000200E0001F0E8FA002836D0002001F0E7
:1039A000FBFA002831D0FEF7D5FE0023184A121882
:1039B0004B41802109068B4216D2164D280002F099
:1039C0008BFF002821D0002001F0CEFA00280FD173
:1039D00001200021404200F0C1FC03246442280081
:1039E00002F052FF200070BD01220B4B5242E4E76F
:1039F000002001F0D1FA0028EAD021003200002096
:103A000001F0D6FA041EEAD1E7E703246442E9E7AD
:103A100040420F0074270020FFFFFF7FF8B5DE460D
:103A2000574680B505000C00FEF794FE0023374A88
:103A300012184B41802109068B4202D30122344BDC
:103A40005242344908008A4602F046FF002803D15A
:103A5000C0BCBB46B246F8BD002001F085FA002884
:103A60004AD00026002C43DD2B4B9B4614E0A919BD
:103A7000002001F011FB070001200021404200F06E
:103A80006DFC002001F0CCFAFEF764FE224BF61923
:103A900018605960B4422BDD002001F017FBA71B12
:103AA0000200B84200DD3A00002AE0D101200021E6
:103AB000404200F053FC002001F0B2FA002001F077
:103AC00053FA002814D0002001F000FB0028E1D1B7
:103AD000FEF740FE5B460F001A685B6800218446D3
:103AE0000E4812184B419F4202D8D3D19445D1D9E8
:103AF000504602F0C9FEABE700200021064B1860DB
:103B00005960504602F0C0FEA2E7C04640420F0096
:103B1000FFFFFF7F742700206015002020A1070011
:103B200010B5244C84B00021200002F0C5FE00280E
:103B30001CD1214B1A68002A16D0EFF3108172B6FF
:103B400010680028FCD0BFF35F8F01241B48596028
:103B500002781B68D2B20470BFF35F8F0020186038
:103B600081F31088002A0AD004B010BD0120002182
:103B7000404200F0F3FB200002F086FEF4E7FEF77F
:103B8000C3FB0400FEF7E6FDFA22002392001218A0
:103B90004B41802109068B4202D30122084B52423D
:103BA0000121029100210191064920000091FEF7B8
:103BB000AFFBD9E77427002048230020C927002045
:103BC000FFFFFF7F39390010054B10B5186800283A
:103BD00004D0044B0022196801F036F810BDC0462D
:103BE0004C1E0020501E0020D02310B51B0684B0B0
:103BF0001C68FEF789FBFEF749FCA04202D00020BA
:103C000004B010BD274B1B7801F042FC2648FEF79C
:103C10007FF90120FEF75EF9FF23244C2449207030
:103C20001840FDF7E5FE20780121FDF7A9FE0520EB
:103C3000FDF7C0FE002827D1FEF766FB0400FEF763
:103C400089FDFA220023920012184B4180210906B7
:103C50008B4202D30122174B5242012102910021D3
:103C60000191154920000091FEF752FB0822040043
:103C700000211248FFF7B2FC002CC0DB10480121E4
:103C8000FFF7BEFD0120BBE700220E490520FDF72E
:103C9000D9FEFDF7FBFD094B01001800FEF762F9A4
:103CA000ECE7C0467471001074270020C82700207C
:103CB000213B0010FFFFFF7F39390010482300200F
:103CC000900E00202939001000487047986F0010AE
:103CD00000487047446F001010B50400174803787F
:103CE000002B20D0002C06D1154B16484380063BF4
:103CF000FF3B038010BD052C19D8134BA400E058DE
:103D000012490123013804E001330A800231142BE7
:103D10000FD0C25C002AF7D1C022DBB25B00920058
:103D200008481343E5E7112100F01AF8DAE700200C
:103D3000E0E7CA2303489B00DBE7C046B02700202A
:103D400009040000981E00202C6F00109A1E00200D
:103D500010B5024800F0D8F810BDC046602300201E
:103D600030B54B1E012900D1A7E0664A11780D0934
:103D70002C0030349F2900D9A2E00470012B00D11F
:103D8000BEE00F21147821400C003034092900D9FD
:103D900098E04470022B00D1B2E054782509290044
:103DA00030319F2C00D990E08170032B00D1A7E027
:103DB0000F2121400C003034092900D987E0C4705C
:103DC000042B00D19CE094782509290030319F2CE8
:103DD00000D97FE00171052B00D191E00F21214036
:103DE0000C003034092900D976E04471062B00D14B
:103DF00086E0D4782509290030319F2C00D96EE067
:103E00008171072B00D17BE00F2121400C00303461
:103E1000092966D8C471082B00D171E014792509ED
:103E2000290030319F2C5FD80172092B68D00F21F7
:103E300021400C003034092958D844720A2B5FD035
:103E400054792509290030319F2C52D881720B2BCF
:103E500056D00F2121400C00303409294BD8C472B0
:103E60000C2B4DD094792509290030319F2C00D995
:103E7000073101730D2B43D00F2121400C0030344A
:103E8000092901D937310C0044730E2B38D0D17970
:103E90000C09220030329F2900D9073282730F2B80
:103EA0002ED00F220A4011003731092A01D83032B2
:103EB0001100C173102B23D010300023037030BDCC
:103EC00007345AE737310C0063E707316CE73731C5
:103ED0000C0074E707317DE737310C0085E70731C7
:103EE0008EE737310C0095E707319DE737310C003D
:103EF000A3E70731AAE737310C00C4720C2BB1D10C
:103F0000C018DAE76023002010B588B004000D2245
:103F100000216846FFF762FB0D22002104A8FFF78D
:103F20005DFB4B236A466846137004A90D2202F01C
:103F3000A3FC1521082220006944FFF755FB08B0B7
:103F400010BDC04610B501210520FDF719FD10BDBB
:103F500010B500220021024800F058F910BDC046FB
:103F6000F41E00208022024B5202DA647047C046E1
:103F700000201150F0B5C64600B5060000F020F94B
:103F80000C231B4DFF22AB6705201A49FDF75AFD94
:103F900040239846184C402200212000FFF71EFBCA
:103FA00043460127238321210023144A6770A2601E
:103FB000136063545F31618441462187053963543E
:103FC0000F4A10496360E260A1620B606362E262C3
:103FD00002F092FC80239B052F64EB6490230A4A35
:103FE0003000EA50FFF7BEFF80BCB846F0BDC046C7
:103FF00000001150A1040020D41E002084001050A5
:10400000000110508000105010D001000B785B06AA
:1040100002D14B78052B00D070478A78014B1A608B
:10402000FAE7C04600001150F0B5C64600B5CC789E
:1040300088780A794B797F21A40701401B02C509C2
:1040400013434F00A20F1400324E7A195201B218D6
:10405000907001206840507000205B055B0DD070AF
:104060001383D4768046CA00012D33D02A48844673
:10407000880162448446B4446046826040461060D1
:10408000002933D0254AC900904662464144516018
:104090003F223F339343022C00D15B0020487A1922
:1040A00001685201B218D1601E4ACB18036051401A
:1040B0005A40802388465B019A4228D84346A4068A
:1040C0001C4380237F197F01F61972681B06234366
:1040D000136011E014488446880162448446B44465
:1040E0006046826240461060002909D100236D01BC
:1040F00075196B600D4BEB60012080BCB846F0BDBC
:10410000084AC9009046624641445162C0E7FFF741
:10411000ABF8D3E7D41E00208400105004001050E8
:104120002823002000001050800010500001105083
:1041300010B502F0E1FB10BD10B57F200C0020404F
:104140004000E409110000191A00034B4001C01897
:1041500000F05CF8012010BDD41E00207F23180061
:1041600010B50840CA090B4203D107497D3B9B1A91
:104170008B66400080188022044B40010021C0184B
:10418000120102F0C1FB10BD00201150D41E00200E
:104190007F22130010B50B400A4200D110BDC9099F
:1041A0005B005B1804485B01C01800230022034930
:1041B000C37002F0A9FBF1E7D41E0020FFF7FFFF58
:1041C00080220D4B520410B51A600C4B0C491A603A
:1041D00010008B689843FBD10A4C9C2200212000E0
:1041E000FFF7FCF98022002152010748FFF7F6F99A
:1041F0000923636710BDC04600E0004000F00040A6
:1042000000C000400000115000001050002310B505
:10421000C3820133828283760161040002F044FB91
:10422000002804D080219023074A8902D150200021
:1042300002F072FB002802D00123237710BD20007A
:1042400002F052FBFAE7C04600201150024B5878AA
:10425000431E9841C0B27047181C0020024B1878CA
:104260004007C00F7047C046181C0020034B187849
:10427000FF38431E9841C0B27047C046CC0E0020A4
:10428000F8B5CE46474680B52A4E05003378FF2B59
:1042900001D001203DE0532200212748FFF79EF97D
:1042A000264C2000FDF734FE254B1C60254C2000D9
:1042B000143CFDF749FE200001F0CCFB224B234FBC
:1042C0001C60234B9846002F1ED01800FFF702FBFE
:1042D000204B186043461B781F4A00249146002F4C
:1042E00014D04A46A3421AD89047434601341B785B
:1042F000E4B2A342F3D228003570FFF73BFE28005A
:10430000FFF720FE012004E01B78E5E7002C04D035
:104310000020C0BCB946B046F8BD0F4AE4E70D4ADC
:10432000630012681B19DB00D318002BF0D01A6849
:10433000DAE7C046CC0E0020181C0020D01B00205D
:104340006C1C0020C40E0020701C0020D53800100A
:10435000C1270020F0180020E5500010F0B5DE461F
:1043600057464E464546E0B591B001F097F8002813
:1043700000D1FCE0C34BC44E9946C44B0DAC029334
:10438000C34B9B464B46019335686A69EFF3108136
:1043900072B61368002BFCD0BFF35F8FA9612800B1
:1043A000210001F085F96A69AB69BFF35F8F0021D5
:1043B000116083F31088002800D1D8E06378082BBF
:1043C000E2D8019A9B00D3589F466368002BDBD04C
:1043D000A0689847D8E77F202179AC4D084043007A
:1043E000CA09EB189B181D0001273035EA78BA433B
:1043F000EA70EA780337BA43EA70002800D1F2E0A5
:10440000A44FDB7C002F06D0A34A1278934200D23F
:10441000F1E09B1ADBB2002B00D0A8E09F4DA3680F
:1044200062792078A847AFE70122984D01202B78C8
:10443000042113432B703323EA5C8243EA54EA5C81
:104440008A43EA540133EA5C8243EA54EA5C00207E
:104450008A43EA5423789A4600F0F8FC60222379D4
:104460001A40602A00D1B5E0402A00D1AFE0DB0657
:10447000DB0E012B00D1D3E0022B00D120E1002B79
:1044800000D0A7E0202A00D153E1002A00D0A1E00B
:104490006379092B00D99DE0814A9B00D3589F4640
:1044A000029B1B78DB0700D46EE77E4B002B00D10C
:1044B0006AE700E000BF67E7744D2B78DB0700D4A4
:1044C00062E7794B002B00D15EE728780007C00F28
:1044D00000E000BF58E7002523786E4F9A466E4BE8
:1044E00098461B78002F49D05A46AB4263D85046B5
:1044F0009047434601351B78EDB2AB42F2D2634D93
:10450000532200212800FFF769F81022FF21E81C40
:10451000FFF764F828002022FF211330FFF75EF830
:104520002EE0002523785B4F9A465B4B98461B781C
:10453000002F2ED05A469D4233D3504690474346D3
:1045400001351B78EDB2AB42F2D2504D532200211F
:104550002800FFF743F81022FF21E81CFFF73EF880
:1045600028002022FF211330FFF738F814E011B0A3
:10457000F0BCBB46B246A946A046F0BD002D38D0DF
:1045800000F05AFC494B002B00D1FDE600E000BFD3
:10459000FAE6002D19D03D4D00F04EFC2379AB70AA
:1045A000F2E6434A6B0012685B19DB00D318002B5C
:1045B000F1D05A68C1E73E4A6B0012685B19DB0014
:1045C000D318002BDCD05A6891E7314AB5E7394857
:1045D00000281AD120780021FFF7C0FD8021207823
:1045E000FFF7BCFDD0E6A3686279207800F042FCBA
:1045F000CAE6274A7BE72E4A58001268C318DB0038
:10460000D318002BB3D01D6909E700F01FFC01216E
:1046100050460EAA00E000BF002800D0B4E6D9E75B
:10462000237A0F2BD6D81B4FEB18DB78002F06D040
:10463000194A1278934200D29CE09B1ADBB2002BFD
:10464000C8D11D481D4D00F001FC01215046EB680A
:104650000EAA9847002800D096E66022150023791C
:104660001D401A42B6D163790A3B012BB2D800F043
:10467000EDFB63790A2B00D17DE150460EA900F0D5
:104680006FFB81E6AC6F0010701C0020181C00202E
:1046900061510010D5380010C1270020555300107B
:1046A000D06F0010000000000000000000000000BB
:1046B000F018002000000000715200103870001047
:1046C0007023217A0B4285D1C80984460F330B40F1
:1046D0005B00E8186044C07CB14F8046002F07D0D3
:1046E000B0480078804550D34746381AC0B280465B
:1046F000404600283AD1002A00D0F5E0AA4A904668
:10470000677902203A008243012A00D1F0E0002FAD
:1047100000D05FE7EB1863443033DB780CAA9B07CB
:10472000DB0F02321380504602230EA900F02EFB4D
:104730002AE6237A0F2B00D94CE7994FEB18DB7848
:10474000002F06D0974A1278934200D2F3E09B1ACA
:10475000DBB2002B00D03DE79448934D00F076FB90
:1047600001215046EB680EAA984755E79046002A6B
:10477000C6D02FE78E4A59001568CB18DB00ED181C
:10478000002D00D126E7E8685DE7474688487F00AE
:10479000006847448046FF00B844002AB0D0434632
:1047A000002B00D116E7D86800F050FB43460121EA
:1047B0005046DB680EAA98472EE7A37903931A00A8
:1047C0006B789A4207D06B78002B00D058E1039B9E
:1047D000002B00D0F8E0039B50460EA96B7000F050
:1047E000BFFAD1E56B780CAA023213705046012350
:1047F0000EA900F0CBFAC7E5E3881A0AD8B20F2A4F
:1048000000D9E7E66B499300CB589F460EA800F00D
:1048100023FB5046A179FFF79BFB02222B78134321
:104820002B70B1E5E388012B00D0D3E608222B786A
:10483000504693430EA92B7000F092FAA4E5022093
:1048400029780CAB9A1C8B068908DB0F01400B43BF
:1048500068E7E388012B00D0BCE608222B7850469D
:1048600013430EA92B7000F07BFA8DE5524B002B01
:1048700000D1AFE600E000BF021E00D1AAE6D37867
:1048800091781B020B4350460EA900F07FFAC3E655
:104890004A4B002B00D19DE600E000BF021E00D174
:1048A00098E6504613780EA900F070FAB4E6218914
:1048B000FFF712FA021EF4D18CE6022A00D12DE194
:1048C0003F4B002B00D185E600E000BF0200002A2C
:1048D00000D17FE6D3E7FFF7F7F9122302000EA914
:1048E000504600F053FA97E62F4B304898465BE766
:1048F000E288002A09D1334A1078012F26D0EF1818
:1049000067443037FB789B073ED54346002B00D1E8
:104910003AE5D86800F09AFA43460121DB680EAA0E
:1049200050469847002000F091FA3423EB5CDB07F7
:1049300000D529E5A1E61E4A59001568CB18DB0011
:10494000ED18002D00D145E6E86807E730229146D2
:10495000EB18634499444B46DB789B07D5D5FFF7AA
:1049600017FC4B460222DB7893434A46D370D37838
:10497000BB43D370C9E70CAB9A1C504601230EA968
:10498000157000F003FAFFE4FFF7E8FB0222FB7862
:1049900013430122FB70FB781343FB70B5E7C0465D
:1049A000D5380010C1270020387000107152001057
:1049B000F0180020F86F0010000000000000000058
:1049C00000000000CC0E0020581EC0B2FFF780F996
:1049D000002800D1FEE543780793022B00D0F9E5CB
:1049E0000121C279B146931152110B400A401201C4
:1049F0005B0113432A782F318A4313432B70092319
:104A0000984680444746A846C37882781B021343E1
:104A1000C31804935C4B0993049BBB4200D881E00C
:104A20007B7801220B2B02D13B78FA78FF187B7838
:104A3000042B23D10025049B0B92DB1B9BB2059317
:104A4000524B19780693524B0A93524B08930A9B88
:104A5000002B52D0099B089E8D4245D33900504609
:104A6000059A98478446082802D9059A824262D25C
:104A7000069B01351978EDB2A942E8D24E46A9E568
:104A80005046FFF755FB00229146434AAB7805920A
:104A90002A004D46914604933C4B3D4F98461B7867
:104AA000002F1BD0059A9D422CD350469047434679
:104AB00001351B78EDB2AB42F2D24D4653220021B4
:104AC0002800FEF78BFD1022FF213448FEF786FDFB
:104AD0002022FF213248FEF781FD02E0002D1BD08D
:104AE0004D46049BAB7072E618232E4A6B43166842
:104AF000F618002EC2D0B368B0E7002DBED1224B0D
:104B0000244EABE7274A6B0012685B19DB00D31811
:104B1000002BE5D05A68C8E71F4AC6E7FFF7D8F868
:104B20000200D4E6204B45464E46002B00D152E60B
:104B300000E000BF4FE60B9A012A1FD00021464635
:104B400009E0BB78CB18DBB2F318D878FF2895D1F1
:104B50000131DD70C9B29142F3D1B04666462B00F7
:104B6000390032000E4800F01FFDB446069B674432
:104B70001B78AB4200D34FE74E462BE5024BB168A2
:104B80009942DBD1079AD9E78D510010C127002047
:104B9000D538001038700010615100101B1C002027
:104BA0002B1C0020F018002000000000F8B557462C
:104BB0004E46DE4645460C00E0B516001F00002AB2
:104BC0003CD01F4B00259A46702399461D4B9B46AF
:104BD00017E05B462000997800F0A8FC00281FD061
:104BE00021004046FFF720FA002819D0A378DA09FF
:104BF000012A1CD00A9A013513702378E418B542B3
:104C00001CDA6378052B0BD1E3789B079B0FBB4223
:104C100006D153464A461B789846A3781A42D8D004
:104C20000020F0BCBB46B246A946A046F8BD0B9A90
:104C3000013513702378E418B542E2DB0120F0E778
:104C4000CC0E0020181C0020802310B51B0184B05E
:104C500001930E4B02901C6803916269EFF310837D
:104C600072B611680029FCD0BFF35F8FA3612000EA
:104C700001A900F0DFFD6269A369BFF35F8F002126
:104C8000116083F3108804B010BDC046701C002072
:104C9000702270B5094B0C001D788B781A4201D038
:104CA000002070BD064B2000997800F03FFC0028E2
:104CB000F6D021002800FFF7B7F9F2E7CC0E00206C
:104CC000181C00200B007F2010B51840DB0933337F
:104CD0004000044AC018044B1168C01800F0E2FB01
:104CE00010BDC0466C1C0020181C00200B007F204B
:104CF00010B51840DB0933334000044AC018044B98
:104D00001168C01800F0F6FB10BDC0466C1C0020F6
:104D1000181C002070B57F240F480C406400041953
:104D2000CD0964193034E078C00701D5002070BD8A
:104D30000126E578094835430078E570FFF7FCF96E
:104D40000028F4D10122E3789343E370E37803323F
:104D50009343E370EAE7C046181C0020CC0E002005
:104D600070B5094C0600082220000D00FEF73CFC3F
:104D700000238021E360A3602B7830009943002258
:104D80000023FFF7C7FF70BDBC1B0020F8B5CE465F
:104D900047469046264E80B58146082230000D00D9
:104DA0001F00FEF721FC4346B3600023F381EC793A
:104DB000AB7924021C43231CBC4200D93B1C9FB28C
:104DC000B381002C0ED0002F18D04346002B2CD0DE
:104DD0003B1C402F1BD89FB233787F2B1CD800215F
:104DE000144A0FE080212B78002299434846002383
:104DF000FFF790FFC0BCB946B046F8BD7F23002244
:104E0000317899433B004846FFF784FFF2E740239F
:104E10009FB233787F2BE2D9064C3A0041462000FE
:104E2000FEF7E2FB80212200ECE70020E2E7C0462B
:104E3000BC1B0020D81B002010B514220021024802
:104E4000FEF7CCFB10BDC046BC1B0020014B186117
:104E50007047C046BC1B002010B5054C010008225D
:104E60002000FEF7C1FB0023A360E36010BDC04635
:104E7000BC1B002070B5394C1D0023780600DA09F0
:104E8000C9098A4213D00020002D00D070BD344BD8
:104E9000002B03D021003000FFF7B8F82369002B66
:104EA00003D022000321300098470120EEE7A068DC
:104EB0007F2B05D8002834D02A002A49FEF794FB1E
:104EC000E289A1685219E38892B24919E281A1608E
:104ED000934214D03F2D12D9A389981A051C80B291
:104EE00040282AD82078ADB27F2828D800219A42BD
:104EF00032D01C4A2B003000FFF70CFFC6E72369B5
:104F0000002B05D0220002213000984700280AD04B
:104F1000802123780022994330000023FFF7FAFE16
:104F2000B4E70020B2E700213000FFF717F93000A6
:104F30008021FFF713F90120A8E74025D2E79A4224
:104F400007D0084C2A002000FEF74EFB80212200EB
:104F5000D0E780210022CDE70022CBE7BC1B002058
:104F60000D400010D81B002010B50400FFF76EF9AB
:104F7000002801D1002010BDFFF770F90028F9D1F9
:104F8000B22292006243034B01309B181B791840F8
:104F9000F1E7C046F4180020B2239B00434310B54C
:104FA0000248181800F050FB10BDC046041900203C
:104FB000F0B5B225AD0045432C00C646174F10345E
:104FC000E41900B5200092B200F0C0FB06002000FA
:104FD00000F058FB3F2803D8300080BCB846F0BD35
:104FE0007B190020D9789846FFF76CFE0028F3D093
:104FF000200000F047FB3F280AD992239B00EA18C3
:105000004346D219D97800204023FFF783FEE3E717
:1050100043460020D978FFF769FEDDE7F418002049
:10502000F8B50400FFF712F9002801D10020F8BDFF
:10503000FFF714F90028F9D1B2239B005C43250047
:10504000144E2435AD19280000F0FEFA0028EDD0EA
:1050500037190020B978FFF735FE0028E6D0A223E3
:105060009B009C466444A41921002800402200F0C3
:105070006DFBB978051E08D0030022000020FFF761
:1050800049FE0028D2D02800D1E70020FFF72EFEED
:10509000CCE7C046F418002070B5B224A400444305
:1050A000094B0500E418200092B200F017FC06003E
:1050B000200000F0C9FA3F2801D8300070BD280058
:1050C000FFF7AEFFF9E7C04618190020B2239B0096
:1050D000434310B50248181800F0D4FA10BDC0467A
:1050E00018190020B222F0B51B4C83B0002120001B
:1050F0009200FEF773FAFF236371184B8026002598
:10510000E38001270823210020007600237332006A
:10511000278138310095073B103000F05FFA2100FD
:10512000200039313200FF3101230097243000F094
:1051300055FA8E239B00E6183000FCF7E9FE902319
:105140009B002662E6183000E561FCF7E1FE26636D
:10515000656303B0F0BDC046F418002000C2FFFF35
:1051600010B5094C052200212000FEF737FA200077
:105170002434103000F06EFC200000F06BFC0121A4
:10518000200000F087FC10BDF4180020F0B54B792A
:10519000060083B0022B02D18B79022B03D00025AD
:1051A000280003B0F0BD2F4FBB78002BF7D18B78D0
:1051B00009253B700C780C196378242B0BD1082A35
:1051C00002D81FE0AA421DD32378E4185D19637842
:1051D000ADB2242BF6D0052B31D0042B12D163793C
:1051E0000A2B0FD1204B2778019301330093022221
:1051F00002233000E119FFF7D9FC0028CFD00E358B
:10520000ED19ADB2194C200000F03CFA3F28C7D987
:105210002600103E0020F178FFF754FD0028BFD093
:10522000200000F02FFA3F2817D98E239B00E218A8
:10523000F93BF178FF3B0020FFF76CFDB0E7210060
:105240003000FFF725FD0028A9D0A3787B702378D4
:105250005D19E4186378ADB2BFE7F1780020FFF77D
:1052600045FD9DE7F4180020F618002004190020E1
:10527000F8B5602314001278050013400020202B9D
:1052800012D12F4A6379277916781B023B439E423D
:105290000AD16378222B1AD007D8202B3CD0212B9F
:1052A00002D1012930D00120F8BD232BFCD10129E6
:1052B0003FD00329F7D1234B002BF4D0E178A3781A
:1052C00009020020194300E000BF0120ECE701299A
:1052D0002FD00329E7D101252E00A378E4780239E5
:1052E00024021C431471264024321000714000F047
:1052F000D1FB154B002BD6D06208002031002A408C
:1053000000E000BF0120CFE70723210028000F4A5B
:10531000FFF73CFD0120C7E70129F5D00329C2D1E1
:105320000B4B002BBFD00020911DFEF7D9FA0120B6
:10533000BAE721002800FFF713FD0120B4E7C046BB
:10534000F41800200000000000000000FA180020FF
:10535000E1380010F8B545465746DE464E46E0B502
:10536000464D1F00EA7880460C00AB788A4246D052
:1053700000208B421AD0F0BCBB46B246A946A046DC
:10538000F8BD3F4B002B04D0484600F073F90028CD
:105390006CD0484600F076F93F2807D94E46103EBB
:1053A0000020F178FFF78EFC002851D1AB78A342A2
:1053B00001D00120DFE7334B002B02D0002000E0BA
:1053C00000BF0020FFF72CFE0028F2D12E4C200059
:1053D00000F03AF90028ECD1002FEAD0BF06E8D15E
:1053E000243C4046A178FFF76DFC0028E1D0002363
:1053F00000224046A178FFF78DFC0120BBE79223F5
:105400009B00EE1810239B46AB4431005846BAB2BD
:1054100000F064FA1D4BD946002BB2D06B79FF2BFC
:10542000AFD0002FADD0F219924603E00136B2455D
:10543000A7D06B7932789A42F8D1484600F01AF931
:105440000028F3D14B46103B597900E000BFEDE74F
:10545000484600F017F93F280BD98E2292004023CE
:10546000F1784A440020FFF755FC9FE7FEF7ACFBBC
:105470008FE7F1780020FFF739FC97E7F418002058
:10548000C93B0010000000001819002000000000B7
:1054900010B50020FEF7F4FE10BDC04610B5FEF7B3
:1054A000E5FE10BD037870B5DB0704000E00DD0FCC
:1054B000002B17D103785B0701D5280070BD0121AF
:1054C0003000494201F000FA2378DB07DD0F002BA2
:1054D0000AD123785B0708D40422237801251343DB
:1054E000237002E00025E8E70025300001F0CCF948
:1054F000E3E7C04670B50C000121060049422000D8
:1055000001F0E2F933785B07DD0F002B04DB2000AC
:1055100001F0BAF9280070BD3378DB0704D4042207
:10552000337893433370F2E70025F0E7437902794B
:105530001B021343C2785B0592075B0D920F022A90
:105540001DD0032A0CD00020012A08D102394A427A
:105550005141124A9446614499424041C0B2704759
:1055600002394A1E91410E4A494211408022D2001E
:1055700094460020614499424041C0B2EFE70229BD
:1055800005D0002040229A424041C0B2E7E7054AD8
:10559000981843425841C0B2E1E7C046FF030000FB
:1055A00040FCFFFF00FEFFFF8A1870B5914207D252
:1055B0007F264C78052C04D00C7809198A42F8D83B
:1055C00070BD34008D782C4064000419ED096355DA
:1055D0000C7809198A42ECD8F2E7C046F0B5C64605
:1055E00000B5040006A805788020884617001E0034
:1055F0000002824226D8E068002803D001214942F7
:1056000001F062F92069002803D00121494201F02C
:105610005BF94346236073045B0CED031D430023D9
:10562000E0686381A780E5802381002801D001F034
:105630002BF92069002801D001F026F9012080BC57
:10564000B846F0BD0020FAE710B504894189828888
:10565000A3B288B28C4207D31B1A9BB2101C9A4289
:1056600000D9181C80B210BD5100091A5B189BB2FA
:10567000F4E7C04603894089181A43425841C0B232
:105680007047C04610B5048941898288A3B288B2A8
:105690008C4207D31B1A9BB200209A4201D9D21A1E
:1056A00090B210BD5100091A5B189BB2F4E7C046D6
:1056B00070B5040000690E00002803D001214942A2
:1056C00001F002F925896089A288A9B283B28542D6
:1056D0002CD3CD1AADB2002D2ED0AA4208D29142C1
:1056E00030D3891A8BB263819A4203D89B1A9BB23A
:1056F0009A42FBD9E28821685204520C534330008D
:10570000C918FDF771FF63890125591C89B2A28868
:105710008B4213D900215200891A89B22069618114
:10572000002801D001F0B0F8280070BD5500ED1A36
:105730004D19ADB2002DD0D1618989B2520091428C
:10574000ECDBE9E789188BB26381CDE7F0B546461B
:105750004F46D646C0B506000069894690460028E7
:1057600003D00121494201F0AFF831897289B5882F
:105770008BB294B2914254D31F1BBFB2002F4AD0B8
:10578000BD4205D2AB4251D25B199CB22F0074814D
:105790004346B8453DD89FB2A54203D8641BA4B286
:1057A000A542FBD9F28831685204520C90466243FC
:1057B0002B1B9BB2891842469F4225D953439BB26B
:1057C0001A0048469A46FDF70FFF434648467D1BA0
:1057D00064195C4331685044A2B2FDF705FF71893A
:1057E000B588CB199BB26A00994216D99B1A9BB215
:1057F00030697381002801D001F046F83800E0BC20
:10580000BA46B146A846F0BD48467A43FDF7ECFEDD
:10581000E5E73B1CBFE773899BB26A009342E7DB75
:10582000E4E76F003F1BDF19BFB2A7E75B1B9CB229
:10583000ACE7C046F8B50400C0680E00002803D0ED
:105840000121494201F040F8258920896189A28817
:10585000ADB283B28FB2884229D3DB1B9BB29A428E
:1058600009D8E779FF0906D1E068002801D001F0E6
:105870000BF83800F8BD95421ED32B009B1A9BB243
:105880009342FBD2E28820685204520C5343310009
:10589000C018FDF7A9FE6B1C9BB2A2889D4218D9C7
:1058A000002352009B1A9BB201272381DCE75100A1
:1058B000C91B5B189BB2D2E72B00E2882068520418
:1058C000520C53433100C018FDF78EFE0135A288FB
:1058D000ABB252009342E7DBE4E7C046F0B557466F
:1058E0004546DE464E46E0B5140005000F0083B085
:1058F000002A75D0C068002803D00121494200F079
:10590000E3FF2E89E9796A89AB88B6B292B2C909F8
:1059100045D1964200D36DE059008A1AB21892B26E
:10592000002189469A4234D29A1A111C92B2A2429C
:1059300000D9211C8AB29146EA885204520C904642
:105940004A46B21892B292464A46D21A92B2934648
:1059500034009E4203D3E41AA4B29C42FBD24246D6
:10596000624328681B1B9BB2801842464B4554D3A8
:105970004B4639005A43FDF737FEAB885B00B24512
:1059800001D39A4503DB5246D31A9BB29A4653463B
:105990002B81E868002825D000F076FF22E0E98816
:1059A0004904490C88469C4227D2964247D3B11AF3
:1059B00089B28C465800E11A89B28B4661460919B2
:1059C000814208DBD11889B20E1BB6B28A46B242B8
:1059D0003BD9361AB6B2A21992B29246A146B7E79F
:1059E00000239946484603B0F0BCBB46B246A946E0
:1059F000A046F0BDB21A92B292E700218946002B70
:105A0000C7D04146E41A4C431600D118002289B28F
:105A10008A46994693463F199AE753439BB21A0028
:105A200039005C440193FDF7DFFD414622004A4303
:105A3000019B286892B2F918FDF7D6FD9DE7580042
:105A4000811A711889B28C46B5E7A146B04200DDD3
:105A50007EE7BEE710B50400C068002803D001212E
:105A6000494200F031FF2069002803D0012149425A
:105A700000F02AFF0023E06863812381002801D021
:105A800000F002FF2069002801D000F0FDFE012097
:105A900010BDC04670B50400C0680D00002803D0DA
:105AA0000121494200F010FF2069002803D00121A4
:105AB000494200F009FF7F21E379ED011940E068D8
:105AC0002943E171002801D000F0DEFE20690028A2
:105AD00001D000F0D9FE012070BDC0460B4B10B5BF
